{
  "_format": "hh-sol-artifact-1",
  "contractName": "AvianMarket",
  "sourceName": "contracts/AvianMarket.sol",
  "abi": [
    {
      "inputs": [],
      "stateMutability": "nonpayable",
      "type": "constructor"
    },
    {
      "inputs": [
        {
          "internalType": "address",
          "name": "nftAddress",
          "type": "address"
        },
        {
          "internalType": "uint256",
          "name": "tokenId",
          "type": "uint256"
        }
      ],
      "name": "AlreadyListed",
      "type": "error"
    },
    {
      "inputs": [],
      "name": "NoProceeds",
      "type": "error"
    },
    {
      "inputs": [],
      "name": "NotApprovedForMarketplace",
      "type": "error"
    },
    {
      "inputs": [
        {
          "internalType": "address",
          "name": "nftAddress",
          "type": "address"
        },
        {
          "internalType": "uint256",
          "name": "tokenId",
          "type": "uint256"
        }
      ],
      "name": "NotListed",
      "type": "error"
    },
    {
      "inputs": [],
      "name": "NotOwner",
      "type": "error"
    },
    {
      "inputs": [
        {
          "internalType": "address",
          "name": "nftAddress",
          "type": "address"
        },
        {
          "internalType": "uint256",
          "name": "tokenId",
          "type": "uint256"
        },
        {
          "internalType": "uint256",
          "name": "price",
          "type": "uint256"
        }
      ],
      "name": "PriceNotMet",
      "type": "error"
    },
    {
      "anonymous": false,
      "inputs": [
        {
          "indexed": true,
          "internalType": "address",
          "name": "buyer",
          "type": "address"
        },
        {
          "indexed": true,
          "internalType": "address",
          "name": "nftAddress",
          "type": "address"
        },
        {
          "indexed": true,
          "internalType": "uint256",
          "name": "tokenId",
          "type": "uint256"
        },
        {
          "indexed": false,
          "internalType": "uint256",
          "name": "price",
          "type": "uint256"
        }
      ],
      "name": "ItemBought",
      "type": "event"
    },
    {
      "anonymous": false,
      "inputs": [
        {
          "indexed": true,
          "internalType": "address",
          "name": "seller",
          "type": "address"
        },
        {
          "indexed": true,
          "internalType": "address",
          "name": "nftAddress",
          "type": "address"
        },
        {
          "indexed": true,
          "internalType": "uint256",
          "name": "tokenId",
          "type": "uint256"
        }
      ],
      "name": "ItemCanceled",
      "type": "event"
    },
    {
      "anonymous": false,
      "inputs": [
        {
          "indexed": true,
          "internalType": "address",
          "name": "seller",
          "type": "address"
        },
        {
          "indexed": true,
          "internalType": "address",
          "name": "nftAddress",
          "type": "address"
        },
        {
          "indexed": true,
          "internalType": "uint256",
          "name": "tokenId",
          "type": "uint256"
        },
        {
          "indexed": false,
          "internalType": "uint256",
          "name": "price",
          "type": "uint256"
        }
      ],
      "name": "ItemListed",
      "type": "event"
    },
    {
      "anonymous": false,
      "inputs": [
        {
          "indexed": true,
          "internalType": "address",
          "name": "owner",
          "type": "address"
        },
        {
          "indexed": true,
          "internalType": "address",
          "name": "user",
          "type": "address"
        },
        {
          "indexed": true,
          "internalType": "address",
          "name": "nftContract",
          "type": "address"
        },
        {
          "indexed": false,
          "internalType": "uint256",
          "name": "tokenId",
          "type": "uint256"
        },
        {
          "indexed": false,
          "internalType": "uint256",
          "name": "pricePerDay",
          "type": "uint256"
        },
        {
          "indexed": false,
          "internalType": "uint256",
          "name": "startDateUNIX",
          "type": "uint256"
        },
        {
          "indexed": false,
          "internalType": "uint256",
          "name": "endDateUNIX",
          "type": "uint256"
        },
        {
          "indexed": false,
          "internalType": "uint256",
          "name": "expires",
          "type": "uint256"
        }
      ],
      "name": "NFTListed",
      "type": "event"
    },
    {
      "anonymous": false,
      "inputs": [
        {
          "indexed": true,
          "internalType": "address",
          "name": "owner",
          "type": "address"
        },
        {
          "indexed": true,
          "internalType": "address",
          "name": "user",
          "type": "address"
        },
        {
          "indexed": true,
          "internalType": "address",
          "name": "nftContract",
          "type": "address"
        },
        {
          "indexed": false,
          "internalType": "uint256",
          "name": "tokenId",
          "type": "uint256"
        },
        {
          "indexed": false,
          "internalType": "uint256",
          "name": "startDateUNIX",
          "type": "uint256"
        },
        {
          "indexed": false,
          "internalType": "uint256",
          "name": "endDateUNIX",
          "type": "uint256"
        },
        {
          "indexed": false,
          "internalType": "uint64",
          "name": "expires",
          "type": "uint64"
        },
        {
          "indexed": false,
          "internalType": "uint256",
          "name": "rentalFee",
          "type": "uint256"
        }
      ],
      "name": "NFTRented",
      "type": "event"
    },
    {
      "anonymous": false,
      "inputs": [
        {
          "indexed": true,
          "internalType": "address",
          "name": "unlistSender",
          "type": "address"
        },
        {
          "indexed": true,
          "internalType": "address",
          "name": "nftContract",
          "type": "address"
        },
        {
          "indexed": true,
          "internalType": "uint256",
          "name": "tokenId",
          "type": "uint256"
        },
        {
          "indexed": false,
          "internalType": "uint256",
          "name": "refund",
          "type": "uint256"
        }
      ],
      "name": "NFTUnlisted",
      "type": "event"
    },
    {
      "inputs": [
        {
          "internalType": "address",
          "name": "nftAddress",
          "type": "address"
        },
        {
          "internalType": "uint256",
          "name": "tokenId",
          "type": "uint256"
        }
      ],
      "name": "buyItem",
      "outputs": [],
      "stateMutability": "payable",
      "type": "function"
    },
    {
      "inputs": [
        {
          "internalType": "address",
          "name": "nftAddress",
          "type": "address"
        },
        {
          "internalType": "uint256",
          "name": "tokenId",
          "type": "uint256"
        }
      ],
      "name": "cancelListing",
      "outputs": [],
      "stateMutability": "nonpayable",
      "type": "function"
    },
    {
      "inputs": [
        {
          "internalType": "address",
          "name": "nftAddress",
          "type": "address"
        },
        {
          "internalType": "uint256",
          "name": "tokenId",
          "type": "uint256"
        }
      ],
      "name": "getListing",
      "outputs": [
        {
          "components": [
            {
              "internalType": "address",
              "name": "owner",
              "type": "address"
            },
            {
              "internalType": "address",
              "name": "nftContract",
              "type": "address"
            },
            {
              "internalType": "uint256",
              "name": "tokenId",
              "type": "uint256"
            },
            {
              "internalType": "uint256",
              "name": "price",
              "type": "uint256"
            }
          ],
          "internalType": "struct AvianMarket.Listing_sell",
          "name": "",
          "type": "tuple"
        }
      ],
      "stateMutability": "view",
      "type": "function"
    },
    {
      "inputs": [],
      "name": "getListingFee",
      "outputs": [
        {
          "internalType": "uint256",
          "name": "",
          "type": "uint256"
        }
      ],
      "stateMutability": "view",
      "type": "function"
    },
    {
      "inputs": [
        {
          "internalType": "address",
          "name": "seller",
          "type": "address"
        }
      ],
      "name": "getProceeds",
      "outputs": [
        {
          "internalType": "uint256",
          "name": "",
          "type": "uint256"
        }
      ],
      "stateMutability": "view",
      "type": "function"
    },
    {
      "inputs": [],
      "name": "getRentListings",
      "outputs": [
        {
          "components": [
            {
              "internalType": "address",
              "name": "owner",
              "type": "address"
            },
            {
              "internalType": "address",
              "name": "user",
              "type": "address"
            },
            {
              "internalType": "address",
              "name": "nftContract",
              "type": "address"
            },
            {
              "internalType": "uint256",
              "name": "tokenId",
              "type": "uint256"
            },
            {
              "internalType": "uint256",
              "name": "pricePerDay",
              "type": "uint256"
            },
            {
              "internalType": "uint256",
              "name": "startDateUNIX",
              "type": "uint256"
            },
            {
              "internalType": "uint256",
              "name": "endDateUNIX",
              "type": "uint256"
            },
            {
              "internalType": "uint256",
              "name": "expires",
              "type": "uint256"
            }
          ],
          "internalType": "struct AvianMarket.Listing_rent[]",
          "name": "",
          "type": "tuple[]"
        }
      ],
      "stateMutability": "view",
      "type": "function"
    },
    {
      "inputs": [],
      "name": "getSellListings",
      "outputs": [
        {
          "components": [
            {
              "internalType": "address",
              "name": "owner",
              "type": "address"
            },
            {
              "internalType": "address",
              "name": "nftContract",
              "type": "address"
            },
            {
              "internalType": "uint256",
              "name": "tokenId",
              "type": "uint256"
            },
            {
              "internalType": "uint256",
              "name": "price",
              "type": "uint256"
            }
          ],
          "internalType": "struct AvianMarket.Listing_sell[]",
          "name": "",
          "type": "tuple[]"
        }
      ],
      "stateMutability": "view",
      "type": "function"
    },
    {
      "inputs": [
        {
          "internalType": "address",
          "name": "nftContract",
          "type": "address"
        }
      ],
      "name": "isNFT",
      "outputs": [
        {
          "internalType": "bool",
          "name": "",
          "type": "bool"
        }
      ],
      "stateMutability": "view",
      "type": "function"
    },
    {
      "inputs": [
        {
          "internalType": "address",
          "name": "nftContract",
          "type": "address"
        }
      ],
      "name": "isRentableNFT",
      "outputs": [
        {
          "internalType": "bool",
          "name": "",
          "type": "bool"
        }
      ],
      "stateMutability": "view",
      "type": "function"
    },
    {
      "inputs": [
        {
          "internalType": "address",
          "name": "nftAddress",
          "type": "address"
        },
        {
          "internalType": "uint256",
          "name": "tokenId",
          "type": "uint256"
        },
        {
          "internalType": "uint256",
          "name": "price",
          "type": "uint256"
        }
      ],
      "name": "listItem",
      "outputs": [],
      "stateMutability": "nonpayable",
      "type": "function"
    },
    {
      "inputs": [
        {
          "internalType": "address",
          "name": "nftAddress",
          "type": "address"
        },
        {
          "internalType": "uint256",
          "name": "tokenId",
          "type": "uint256"
        },
        {
          "internalType": "uint256",
          "name": "pricePerDay",
          "type": "uint256"
        },
        {
          "internalType": "uint256",
          "name": "startDateUNIX",
          "type": "uint256"
        },
        {
          "internalType": "uint256",
          "name": "endDateUNIX",
          "type": "uint256"
        }
      ],
      "name": "listNFT",
      "outputs": [],
      "stateMutability": "payable",
      "type": "function"
    },
    {
      "inputs": [
        {
          "internalType": "address",
          "name": "nftContract",
          "type": "address"
        },
        {
          "internalType": "uint256",
          "name": "tokenId",
          "type": "uint256"
        },
        {
          "internalType": "uint64",
          "name": "numDays",
          "type": "uint64"
        }
      ],
      "name": "rentNFT",
      "outputs": [],
      "stateMutability": "payable",
      "type": "function"
    },
    {
      "inputs": [
        {
          "internalType": "address",
          "name": "nftAddress",
          "type": "address"
        },
        {
          "internalType": "uint256",
          "name": "tokenId",
          "type": "uint256"
        }
      ],
      "name": "unlistNFT",
      "outputs": [],
      "stateMutability": "payable",
      "type": "function"
    },
    {
      "inputs": [
        {
          "internalType": "address",
          "name": "nftAddress",
          "type": "address"
        },
        {
          "internalType": "uint256",
          "name": "tokenId",
          "type": "uint256"
        },
        {
          "internalType": "uint256",
          "name": "newPrice",
          "type": "uint256"
        }
      ],
      "name": "updateListing",
      "outputs": [],
      "stateMutability": "nonpayable",
      "type": "function"
    },
    {
      "inputs": [],
      "name": "withdrawProceeds",
      "outputs": [],
      "stateMutability": "nonpayable",
      "type": "function"
    }
  ],
  "bytecode": "0x608060405266038d7ea4c6800060025534801561001b57600080fd5b50600160008190555033600160006101000a81548173ffffffffffffffffffffffffffffffffffffffff021916908373ffffffffffffffffffffffffffffffffffffffff160217905550614bd5806100746000396000f3fe6080604052600436106100e85760003560e01c8063995e578b1161008a578063b31b85c911610059578063b31b85c914610296578063b8fe6abe146102d3578063e9a6f4f6146102fe578063f772adf11461033b576100e8565b8063995e578b1461020a5780639a34f003146102355780639f37092a14610251578063b2ddee061461026d576100e8565b80637fc27efd116100c65780637fc27efd1461017157806388700d1c1461018d57806389bfd38f146101ca5780639038e693146101f3576100e8565b806330cfeda9146100ed578063789df8db1461012a5780637e943afd14610155575b600080fd5b3480156100f957600080fd5b50610114600480360381019061010f9190613985565b610364565b60405161012191906139cb565b60405180910390f35b34801561013657600080fd5b5061013f6103ad565b60405161014c9190613b56565b60405180910390f35b61016f600480360381019061016a9190613ba4565b6106aa565b005b61018b60048036038101906101869190613c1f565b610f67565b005b34801561019957600080fd5b506101b460048036038101906101af9190613c1f565b611671565b6040516101c19190613cb4565b60405180910390f35b3480156101d657600080fd5b506101f160048036038101906101ec9190613ccf565b61179c565b005b3480156101ff57600080fd5b50610208611d6e565b005b34801561021657600080fd5b5061021f611ee1565b60405161022c9190613e26565b60405180910390f35b61024f600480360381019061024a9190613e88565b612169565b005b61026b60048036038101906102669190613c1f565b61252a565b005b34801561027957600080fd5b50610294600480360381019061028f9190613c1f565b612ab4565b005b3480156102a257600080fd5b506102bd60048036038101906102b89190613985565b612ed1565b6040516102ca9190613ef6565b60405180910390f35b3480156102df57600080fd5b506102e8612f87565b6040516102f591906139cb565b60405180910390f35b34801561030a57600080fd5b5061032560048036038101906103209190613985565b612f91565b6040516103329190613ef6565b60405180910390f35b34801561034757600080fd5b50610362600480360381019061035d9190613ccf565b6130fa565b005b6000600560008373ffffffffffffffffffffffffffffffffffffffff1673ffffffffffffffffffffffffffffffffffffffff168152602001908152602001600020549050919050565b606060006103bb600d61346f565b67ffffffffffffffff8111156103d4576103d3613f11565b5b60405190808252806020026020018201604052801561040d57816020015b6103fa613847565b8152602001906001900390816103f25790505b50905060008061041d600a61347d565b905060005b81518110156106a05760008282815181106104405761043f613f40565b5b602002602001015190506000610493600760008473ffffffffffffffffffffffffffffffffffffffff1673ffffffffffffffffffffffffffffffffffffffff16815260200190815260200160002061349e565b905060005b815181101561068a57600460008473ffffffffffffffffffffffffffffffffffffffff1673ffffffffffffffffffffffffffffffffffffffff16815260200190815260200160002060008383815181106104f5576104f4613f40565b5b60200260200101518152602001908152602001600020604051806101000160405290816000820160009054906101000a900473ffffffffffffffffffffffffffffffffffffffff1673ffffffffffffffffffffffffffffffffffffffff1673ffffffffffffffffffffffffffffffffffffffff1681526020016001820160009054906101000a900473ffffffffffffffffffffffffffffffffffffffff1673ffffffffffffffffffffffffffffffffffffffff1673ffffffffffffffffffffffffffffffffffffffff1681526020016002820160009054906101000a900473ffffffffffffffffffffffffffffffffffffffff1673ffffffffffffffffffffffffffffffffffffffff1673ffffffffffffffffffffffffffffffffffffffff1681526020016003820154815260200160048201548152602001600582015481526020016006820154815260200160078201548152505087878151811061065e5761065d613f40565b5b6020026020010181905250858061067490613f9e565b965050808061068290613f9e565b915050610498565b505050808061069890613f9e565b915050610422565b5082935050505090565b6106b26134bf565b84846000600460008473ffffffffffffffffffffffffffffffffffffffff1673ffffffffffffffffffffffffffffffffffffffff1681526020019081526020016000206000838152602001908152602001600020604051806101000160405290816000820160009054906101000a900473ffffffffffffffffffffffffffffffffffffffff1673ffffffffffffffffffffffffffffffffffffffff1673ffffffffffffffffffffffffffffffffffffffff1681526020016001820160009054906101000a900473ffffffffffffffffffffffffffffffffffffffff1673ffffffffffffffffffffffffffffffffffffffff1673ffffffffffffffffffffffffffffffffffffffff1681526020016002820160009054906101000a900473ffffffffffffffffffffffffffffffffffffffff1673ffffffffffffffffffffffffffffffffffffffff1673ffffffffffffffffffffffffffffffffffffffff1681526020016003820154815260200160048201548152602001600582015481526020016006820154815260200160078201548152505090506000816080015111156108945782826040517f4a5568d500000000000000000000000000000000000000000000000000000000815260040161088b929190613ff5565b60405180910390fd5b61089d88612f91565b6108dc576040517f08c379a00000000000000000000000000000000000000000000000000000000081526004016108d39061407b565b60405180910390fd5b3373ffffffffffffffffffffffffffffffffffffffff168873ffffffffffffffffffffffffffffffffffffffff16636352211e896040518263ffffffff1660e01b815260040161092c91906139cb565b602060405180830381865afa158015610949573d6000803e3d6000fd5b505050506040513d601f19601f8201168201806040525081019061096d91906140b0565b73ffffffffffffffffffffffffffffffffffffffff16146109c3576040517f08c379a00000000000000000000000000000000000000000000000000000000081526004016109ba90614129565b60405180910390fd5b6002543414610a07576040517f08c379a00000000000000000000000000000000000000000000000000000000081526004016109fe90614195565b60405180910390fd5b60008611610a4a576040517f08c379a0000000000000000000000000000000000000000000000000000000008152600401610a4190614227565b60405180910390fd5b42851015610a8d576040517f08c379a0000000000000000000000000000000000000000000000000000000008152600401610a8490614293565b60405180910390fd5b84841015610ad0576040517f08c379a0000000000000000000000000000000000000000000000000000000008152600401610ac790614325565b60405180910390fd5b60008890503073ffffffffffffffffffffffffffffffffffffffff168173ffffffffffffffffffffffffffffffffffffffff1663081812fc8a6040518263ffffffff1660e01b8152600401610b2591906139cb565b602060405180830381865afa158015610b42573d6000803e3d6000fd5b505050506040513d601f19601f82011682018060405250810190610b6691906140b0565b73ffffffffffffffffffffffffffffffffffffffff1614610bb3576040517f4be3a2c500000000000000000000000000000000000000000000000000000000815260040160405180910390fd5b600160009054906101000a900473ffffffffffffffffffffffffffffffffffffffff1673ffffffffffffffffffffffffffffffffffffffff166108fc6002549081150290604051600060405180830381858888f19350505050158015610c1d573d6000803e3d6000fd5b506040518061010001604052803373ffffffffffffffffffffffffffffffffffffffff168152602001600073ffffffffffffffffffffffffffffffffffffffff1681526020018a73ffffffffffffffffffffffffffffffffffffffff1681526020018981526020018881526020018781526020018681526020016000815250600460008b73ffffffffffffffffffffffffffffffffffffffff1673ffffffffffffffffffffffffffffffffffffffff16815260200190815260200160002060008a815260200190815260200160002060008201518160000160006101000a81548173ffffffffffffffffffffffffffffffffffffffff021916908373ffffffffffffffffffffffffffffffffffffffff16021790555060208201518160010160006101000a81548173ffffffffffffffffffffffffffffffffffffffff021916908373ffffffffffffffffffffffffffffffffffffffff16021790555060408201518160020160006101000a81548173ffffffffffffffffffffffffffffffffffffffff021916908373ffffffffffffffffffffffffffffffffffffffff160217905550606082015181600301556080820151816004015560a0820151816005015560c0820151816006015560e08201518160070155905050610e00600d61350e565b610e48600760008b73ffffffffffffffffffffffffffffffffffffffff1673ffffffffffffffffffffffffffffffffffffffff16815260200190815260200160002089613524565b50610e54600a8a61353e565b508873ffffffffffffffffffffffffffffffffffffffff16600073ffffffffffffffffffffffffffffffffffffffff168a73ffffffffffffffffffffffffffffffffffffffff16636352211e8b6040518263ffffffff1660e01b8152600401610ebd91906139cb565b602060405180830381865afa158015610eda573d6000803e3d6000fd5b505050506040513d601f19601f82011682018060405250810190610efe91906140b0565b73ffffffffffffffffffffffffffffffffffffffff167f51961ff716bd7d3e30c6869dae4d4c0f9e0c6abbae1aa5887f3f6fa8d68f34df8b8b8b8b6000604051610f4c95949392919061438a565b60405180910390a450505050610f6061356e565b5050505050565b610f6f6134bf565b818133600083905060008173ffffffffffffffffffffffffffffffffffffffff16636352211e856040518263ffffffff1660e01b8152600401610fb291906139cb565b602060405180830381865afa158015610fcf573d6000803e3d6000fd5b505050506040513d601f19601f82011682018060405250810190610ff391906140b0565b90508073ffffffffffffffffffffffffffffffffffffffff168373ffffffffffffffffffffffffffffffffffffffff161461105a576040517f30cd747100000000000000000000000000000000000000000000000000000000815260040160405180910390fd5b86866000600460008473ffffffffffffffffffffffffffffffffffffffff1673ffffffffffffffffffffffffffffffffffffffff1681526020019081526020016000206000838152602001908152602001600020604051806101000160405290816000820160009054906101000a900473ffffffffffffffffffffffffffffffffffffffff1673ffffffffffffffffffffffffffffffffffffffff1673ffffffffffffffffffffffffffffffffffffffff1681526020016001820160009054906101000a900473ffffffffffffffffffffffffffffffffffffffff1673ffffffffffffffffffffffffffffffffffffffff1673ffffffffffffffffffffffffffffffffffffffff1681526020016002820160009054906101000a900473ffffffffffffffffffffffffffffffffffffffff1673ffffffffffffffffffffffffffffffffffffffff1673ffffffffffffffffffffffffffffffffffffffff168152602001600382015481526020016004820154815260200160058201548152602001600682015481526020016007820154815250509050600081608001511161123b5782826040517f6831488c000000000000000000000000000000000000000000000000000000008152600401611232929190613ff5565b60405180910390fd5b6000600460008c73ffffffffffffffffffffffffffffffffffffffff1673ffffffffffffffffffffffffffffffffffffffff16815260200190815260200160002060008b8152602001908152602001600020905060008073ffffffffffffffffffffffffffffffffffffffff168260010160009054906101000a900473ffffffffffffffffffffffffffffffffffffffff1673ffffffffffffffffffffffffffffffffffffffff16146113e757816004015460016018603c8042876007015461130491906143dd565b61130e9190614440565b6113189190614440565b6113229190614440565b61132c9190614471565b61133691906144a5565b90508034101561137b576040517f08c379a000000000000000000000000000000000000000000000000000000000815260040161137290614533565b60405180910390fd5b8160010160009054906101000a900473ffffffffffffffffffffffffffffffffffffffff1673ffffffffffffffffffffffffffffffffffffffff166108fc829081150290604051600060405180830381858888f193505050501580156113e5573d6000803e3d6000fd5b505b8b73ffffffffffffffffffffffffffffffffffffffff1663e030565e8c6000806040518463ffffffff1660e01b815260040161142593929190614584565b600060405180830381600087803b15801561143f57600080fd5b505af1158015611453573d6000803e3d6000fd5b5050505061149f600760008e73ffffffffffffffffffffffffffffffffffffffff1673ffffffffffffffffffffffffffffffffffffffff1681526020019081526020016000208c613578565b50600460008d73ffffffffffffffffffffffffffffffffffffffff1673ffffffffffffffffffffffffffffffffffffffff16815260200190815260200160002060008c8152602001908152602001600020600080820160006101000a81549073ffffffffffffffffffffffffffffffffffffffff02191690556001820160006101000a81549073ffffffffffffffffffffffffffffffffffffffff02191690556002820160006101000a81549073ffffffffffffffffffffffffffffffffffffffff021916905560038201600090556004820160009055600582016000905560068201600090556007820160009055505060006115d9600760008f73ffffffffffffffffffffffffffffffffffffffff1673ffffffffffffffffffffffffffffffffffffffff168152602001908152602001600020613592565b036115eb576115e9600a8d6135a7565b505b6115f5600d6135d7565b8a8c73ffffffffffffffffffffffffffffffffffffffff163373ffffffffffffffffffffffffffffffffffffffff167f6d7362d1e96e1739a576062b58d2055c5f8f9b50bf703c53b1c26cd3a82548c68460405161165391906139cb565b60405180910390a45050505050505050505061166d61356e565b5050565b6116796138ce565b600360008473ffffffffffffffffffffffffffffffffffffffff1673ffffffffffffffffffffffffffffffffffffffff16815260200190815260200160002060008381526020019081526020016000206040518060800160405290816000820160009054906101000a900473ffffffffffffffffffffffffffffffffffffffff1673ffffffffffffffffffffffffffffffffffffffff1673ffffffffffffffffffffffffffffffffffffffff1681526020016001820160009054906101000a900473ffffffffffffffffffffffffffffffffffffffff1673ffffffffffffffffffffffffffffffffffffffff1673ffffffffffffffffffffffffffffffffffffffff16815260200160028201548152602001600382015481525050905092915050565b82826000600360008473ffffffffffffffffffffffffffffffffffffffff1673ffffffffffffffffffffffffffffffffffffffff16815260200190815260200160002060008381526020019081526020016000206040518060800160405290816000820160009054906101000a900473ffffffffffffffffffffffffffffffffffffffff1673ffffffffffffffffffffffffffffffffffffffff1673ffffffffffffffffffffffffffffffffffffffff1681526020016001820160009054906101000a900473ffffffffffffffffffffffffffffffffffffffff1673ffffffffffffffffffffffffffffffffffffffff1673ffffffffffffffffffffffffffffffffffffffff1681526020016002820154815260200160038201548152505090506000816060015111156119095782826040517f4a5568d5000000000000000000000000000000000000000000000000000000008152600401611900929190613ff5565b60405180910390fd5b61191286612ed1565b611951576040517f08c379a000000000000000000000000000000000000000000000000000000000815260040161194890614607565b60405180910390fd5b3373ffffffffffffffffffffffffffffffffffffffff168673ffffffffffffffffffffffffffffffffffffffff16636352211e876040518263ffffffff1660e01b81526004016119a191906139cb565b602060405180830381865afa1580156119be573d6000803e3d6000fd5b505050506040513d601f19601f820116820180604052508101906119e291906140b0565b73ffffffffffffffffffffffffffffffffffffffff1614611a38576040517f08c379a0000000000000000000000000000000000000000000000000000000008152600401611a2f90614129565b60405180910390fd5b60008411611a7b576040517f08c379a0000000000000000000000000000000000000000000000000000000008152600401611a7290614699565b60405180910390fd5b60008690503073ffffffffffffffffffffffffffffffffffffffff168173ffffffffffffffffffffffffffffffffffffffff1663081812fc886040518263ffffffff1660e01b8152600401611ad091906139cb565b602060405180830381865afa158015611aed573d6000803e3d6000fd5b505050506040513d601f19601f82011682018060405250810190611b1191906140b0565b73ffffffffffffffffffffffffffffffffffffffff1614611b5e576040517f4be3a2c500000000000000000000000000000000000000000000000000000000815260040160405180910390fd5b60405180608001604052803373ffffffffffffffffffffffffffffffffffffffff1681526020018873ffffffffffffffffffffffffffffffffffffffff16815260200187815260200186815250600360008973ffffffffffffffffffffffffffffffffffffffff1673ffffffffffffffffffffffffffffffffffffffff168152602001908152602001600020600088815260200190815260200160002060008201518160000160006101000a81548173ffffffffffffffffffffffffffffffffffffffff021916908373ffffffffffffffffffffffffffffffffffffffff16021790555060208201518160010160006101000a81548173ffffffffffffffffffffffffffffffffffffffff021916908373ffffffffffffffffffffffffffffffffffffffff1602179055506040820151816002015560608201518160030155905050611caa600c61350e565b611cf2600660008973ffffffffffffffffffffffffffffffffffffffff1673ffffffffffffffffffffffffffffffffffffffff16815260200190815260200160002087613524565b50611cfe60088861353e565b50858773ffffffffffffffffffffffffffffffffffffffff163373ffffffffffffffffffffffffffffffffffffffff167fd547e933094f12a9159076970143ebe73234e64480317844b0dcb36117116de488604051611d5d91906139cb565b60405180910390a450505050505050565b6000600560003373ffffffffffffffffffffffffffffffffffffffff1673ffffffffffffffffffffffffffffffffffffffff16815260200190815260200160002054905060008111611dec576040517fc4d8fa8700000000000000000000000000000000000000000000000000000000815260040160405180910390fd5b6000600560003373ffffffffffffffffffffffffffffffffffffffff1673ffffffffffffffffffffffffffffffffffffffff1681526020019081526020016000208190555060003373ffffffffffffffffffffffffffffffffffffffff1682604051611e57906146ea565b60006040518083038185875af1925050503d8060008114611e94576040519150601f19603f3d011682016040523d82523d6000602084013e611e99565b606091505b5050905080611edd576040517f08c379a0000000000000000000000000000000000000000000000000000000008152600401611ed49061474b565b60405180910390fd5b5050565b60606000611eef600c61346f565b67ffffffffffffffff811115611f0857611f07613f11565b5b604051908082528060200260200182016040528015611f4157816020015b611f2e6138ce565b815260200190600190039081611f265790505b509050600080611f51600861347d565b905060005b815181101561215f576000828281518110611f7457611f73613f40565b5b602002602001015190506000611fc7600660008473ffffffffffffffffffffffffffffffffffffffff1673ffffffffffffffffffffffffffffffffffffffff16815260200190815260200160002061349e565b905060005b815181101561214957600360008473ffffffffffffffffffffffffffffffffffffffff1673ffffffffffffffffffffffffffffffffffffffff168152602001908152602001600020600083838151811061202957612028613f40565b5b602002602001015181526020019081526020016000206040518060800160405290816000820160009054906101000a900473ffffffffffffffffffffffffffffffffffffffff1673ffffffffffffffffffffffffffffffffffffffff1673ffffffffffffffffffffffffffffffffffffffff1681526020016001820160009054906101000a900473ffffffffffffffffffffffffffffffffffffffff1673ffffffffffffffffffffffffffffffffffffffff1673ffffffffffffffffffffffffffffffffffffffff1681526020016002820154815260200160038201548152505087878151811061211d5761211c613f40565b5b6020026020010181905250858061213390613f9e565b965050808061214190613f9e565b915050611fcc565b505050808061215790613f9e565b915050611f56565b5082935050505090565b6121716134bf565b6000600460008573ffffffffffffffffffffffffffffffffffffffff1673ffffffffffffffffffffffffffffffffffffffff16815260200190815260200160002060008481526020019081526020016000209050600073ffffffffffffffffffffffffffffffffffffffff168160010160009054906101000a900473ffffffffffffffffffffffffffffffffffffffff1673ffffffffffffffffffffffffffffffffffffffff1614806122275750806007015442115b612266576040517f08c379a000000000000000000000000000000000000000000000000000000000815260040161225d906147b7565b60405180910390fd5b6000620151808361227791906147d7565b426122829190614814565b905060008367ffffffffffffffff1683600401546122a091906144a5565b9050803410156122e5576040517f08c379a00000000000000000000000000000000000000000000000000000000081526004016122dc906148c2565b60405180910390fd5b8260000160009054906101000a900473ffffffffffffffffffffffffffffffffffffffff1673ffffffffffffffffffffffffffffffffffffffff166108fc829081150290604051600060405180830381858888f1935050505015801561234f573d6000803e3d6000fd5b508573ffffffffffffffffffffffffffffffffffffffff1663e030565e8633856040518463ffffffff1660e01b815260040161238d939291906148f1565b600060405180830381600087803b1580156123a757600080fd5b505af11580156123bb573d6000803e3d6000fd5b50505050338360010160006101000a81548173ffffffffffffffffffffffffffffffffffffffff021916908373ffffffffffffffffffffffffffffffffffffffff1602179055508167ffffffffffffffff1683600701819055508573ffffffffffffffffffffffffffffffffffffffff163373ffffffffffffffffffffffffffffffffffffffff168773ffffffffffffffffffffffffffffffffffffffff16636352211e886040518263ffffffff1660e01b815260040161247c91906139cb565b602060405180830381865afa158015612499573d6000803e3d6000fd5b505050506040513d601f19601f820116820180604052508101906124bd91906140b0565b73ffffffffffffffffffffffffffffffffffffffff167f9e281a126f51088cc2a404608130a64cb50df5e046d30d0540344ef4f1b6ec2a88876005015488600601548888604051612512959493929190614928565b60405180910390a450505061252561356e565b505050565b81816000600360008473ffffffffffffffffffffffffffffffffffffffff1673ffffffffffffffffffffffffffffffffffffffff16815260200190815260200160002060008381526020019081526020016000206040518060800160405290816000820160009054906101000a900473ffffffffffffffffffffffffffffffffffffffff1673ffffffffffffffffffffffffffffffffffffffff1673ffffffffffffffffffffffffffffffffffffffff1681526020016001820160009054906101000a900473ffffffffffffffffffffffffffffffffffffffff1673ffffffffffffffffffffffffffffffffffffffff1673ffffffffffffffffffffffffffffffffffffffff16815260200160028201548152602001600382015481525050905060008160600151116126965782826040517f6831488c00000000000000000000000000000000000000000000000000000000815260040161268d929190613ff5565b60405180910390fd5b61269e6134bf565b6000600360008773ffffffffffffffffffffffffffffffffffffffff1673ffffffffffffffffffffffffffffffffffffffff16815260200190815260200160002060008681526020019081526020016000206040518060800160405290816000820160009054906101000a900473ffffffffffffffffffffffffffffffffffffffff1673ffffffffffffffffffffffffffffffffffffffff1673ffffffffffffffffffffffffffffffffffffffff1681526020016001820160009054906101000a900473ffffffffffffffffffffffffffffffffffffffff1673ffffffffffffffffffffffffffffffffffffffff1673ffffffffffffffffffffffffffffffffffffffff168152602001600282015481526020016003820154815250509050806060015134101561280e57858582606001516040517f7c9345650000000000000000000000000000000000000000000000000000000081526004016128059392919061497b565b60405180910390fd5b3460056000836000015173ffffffffffffffffffffffffffffffffffffffff1673ffffffffffffffffffffffffffffffffffffffff16815260200190815260200160002060008282546128619190614471565b92505081905550600360008773ffffffffffffffffffffffffffffffffffffffff1673ffffffffffffffffffffffffffffffffffffffff1681526020019081526020016000206000868152602001908152602001600020600080820160006101000a81549073ffffffffffffffffffffffffffffffffffffffff02191690556001820160006101000a81549073ffffffffffffffffffffffffffffffffffffffff0219169055600282016000905560038201600090555050612961600660008873ffffffffffffffffffffffffffffffffffffffff1673ffffffffffffffffffffffffffffffffffffffff16815260200190815260200160002086613578565b5060006129ab600660008973ffffffffffffffffffffffffffffffffffffffff1673ffffffffffffffffffffffffffffffffffffffff168152602001908152602001600020613592565b036129bd576129bb6008876135a7565b505b6129c7600c6135d7565b8573ffffffffffffffffffffffffffffffffffffffff166342842e0e826000015133886040518463ffffffff1660e01b8152600401612a08939291906149b2565b600060405180830381600087803b158015612a2257600080fd5b505af1158015612a36573d6000803e3d6000fd5b50505050848673ffffffffffffffffffffffffffffffffffffffff163373ffffffffffffffffffffffffffffffffffffffff167f263223b1dd81e51054a4e6f791d45a4a1ddb4aadcd93a2dfd892615c3fdac1878460600151604051612a9c91906139cb565b60405180910390a450612aad61356e565b5050505050565b818133600083905060008173ffffffffffffffffffffffffffffffffffffffff16636352211e856040518263ffffffff1660e01b8152600401612af791906139cb565b602060405180830381865afa158015612b14573d6000803e3d6000fd5b505050506040513d601f19601f82011682018060405250810190612b3891906140b0565b90508073ffffffffffffffffffffffffffffffffffffffff168373ffffffffffffffffffffffffffffffffffffffff1614612b9f576040517f30cd747100000000000000000000000000000000000000000000000000000000815260040160405180910390fd5b86866000600360008473ffffffffffffffffffffffffffffffffffffffff1673ffffffffffffffffffffffffffffffffffffffff16815260200190815260200160002060008381526020019081526020016000206040518060800160405290816000820160009054906101000a900473ffffffffffffffffffffffffffffffffffffffff1673ffffffffffffffffffffffffffffffffffffffff1673ffffffffffffffffffffffffffffffffffffffff1681526020016001820160009054906101000a900473ffffffffffffffffffffffffffffffffffffffff1673ffffffffffffffffffffffffffffffffffffffff1673ffffffffffffffffffffffffffffffffffffffff1681526020016002820154815260200160038201548152505090506000816060015111612d0b5782826040517f6831488c000000000000000000000000000000000000000000000000000000008152600401612d02929190613ff5565b60405180910390fd5b600360008b73ffffffffffffffffffffffffffffffffffffffff1673ffffffffffffffffffffffffffffffffffffffff16815260200190815260200160002060008a8152602001908152602001600020600080820160006101000a81549073ffffffffffffffffffffffffffffffffffffffff02191690556001820160006101000a81549073ffffffffffffffffffffffffffffffffffffffff0219169055600282016000905560038201600090555050612e04600660008c73ffffffffffffffffffffffffffffffffffffffff1673ffffffffffffffffffffffffffffffffffffffff1681526020019081526020016000208a613578565b506000612e4e600660008d73ffffffffffffffffffffffffffffffffffffffff1673ffffffffffffffffffffffffffffffffffffffff168152602001908152602001600020613592565b03612e6057612e5e60088b6135a7565b505b612e6a600c6135d7565b888a73ffffffffffffffffffffffffffffffffffffffff163373ffffffffffffffffffffffffffffffffffffffff167f9ba1a3cb55ce8d63d072a886f94d2a744f50cddf82128e897d0661f5ec62315860405160405180910390a450505050505050505050565b600080600090508273ffffffffffffffffffffffffffffffffffffffff166301ffc9a77f80ac58cd000000000000000000000000000000000000000000000000000000006040518263ffffffff1660e01b8152600401612f319190614a24565b602060405180830381865afa925050508015612f6b57506040513d601f19601f82011682018060405250810190612f689190614a6b565b60015b612f79576000915050612f82565b80915050809150505b919050565b6000600254905090565b6000806000905060008373ffffffffffffffffffffffffffffffffffffffff166301ffc9a77fad092b5c000000000000000000000000000000000000000000000000000000006040518263ffffffff1660e01b8152600401612ff39190614a24565b602060405180830381865afa92505050801561302d57506040513d601f19601f8201168201806040525081019061302a9190614a6b565b60015b61303c576000925050506130f5565b809250508373ffffffffffffffffffffffffffffffffffffffff166301ffc9a77f80ac58cd000000000000000000000000000000000000000000000000000000006040518263ffffffff1660e01b81526004016130999190614a24565b602060405180830381865afa9250505080156130d357506040513d601f19601f820116820180604052508101906130d09190614a6b565b60015b6130e2576000925050506130f5565b809150508180156130f05750805b925050505b919050565b82826000600360008473ffffffffffffffffffffffffffffffffffffffff1673ffffffffffffffffffffffffffffffffffffffff16815260200190815260200160002060008381526020019081526020016000206040518060800160405290816000820160009054906101000a900473ffffffffffffffffffffffffffffffffffffffff1673ffffffffffffffffffffffffffffffffffffffff1673ffffffffffffffffffffffffffffffffffffffff1681526020016001820160009054906101000a900473ffffffffffffffffffffffffffffffffffffffff1673ffffffffffffffffffffffffffffffffffffffff1673ffffffffffffffffffffffffffffffffffffffff16815260200160028201548152602001600382015481525050905060008160600151116132665782826040517f6831488c00000000000000000000000000000000000000000000000000000000815260040161325d929190613ff5565b60405180910390fd5b61326e6134bf565b858533600083905060008173ffffffffffffffffffffffffffffffffffffffff16636352211e856040518263ffffffff1660e01b81526004016132b191906139cb565b602060405180830381865afa1580156132ce573d6000803e3d6000fd5b505050506040513d601f19601f820116820180604052508101906132f291906140b0565b90508073ffffffffffffffffffffffffffffffffffffffff168373ffffffffffffffffffffffffffffffffffffffff1614613359576040517f30cd747100000000000000000000000000000000000000000000000000000000815260040160405180910390fd5b6000891161339c576040517f08c379a000000000000000000000000000000000000000000000000000000000815260040161339390614699565b60405180910390fd5b88600360008d73ffffffffffffffffffffffffffffffffffffffff1673ffffffffffffffffffffffffffffffffffffffff16815260200190815260200160002060008c815260200190815260200160002060030181905550898b73ffffffffffffffffffffffffffffffffffffffff163373ffffffffffffffffffffffffffffffffffffffff167fd547e933094f12a9159076970143ebe73234e64480317844b0dcb36117116de48c60405161345291906139cb565b60405180910390a4505050505061346761356e565b505050505050565b600081600001549050919050565b6060600061348d83600001613633565b905060608190508092505050919050565b606060006134ae83600001613633565b905060608190508092505050919050565b600260005403613504576040517f08c379a00000000000000000000000000000000000000000000000000000000081526004016134fb90614ae4565b60405180910390fd5b6002600081905550565b6001816000016000828254019250508190555050565b6000613536836000018360001b61368f565b905092915050565b6000613566836000018373ffffffffffffffffffffffffffffffffffffffff1660001b61368f565b905092915050565b6001600081905550565b600061358a836000018360001b6136ff565b905092915050565b60006135a082600001613813565b9050919050565b60006135cf836000018373ffffffffffffffffffffffffffffffffffffffff1660001b6136ff565b905092915050565b60008160000154905060008111613623576040517f08c379a000000000000000000000000000000000000000000000000000000000815260040161361a90614b50565b60405180910390fd5b6001810382600001819055505050565b60608160000180548060200260200160405190810160405280929190818152602001828054801561368357602002820191906000526020600020905b81548152602001906001019080831161366f575b50505050509050919050565b600061369b8383613824565b6136f45782600001829080600181540180825580915050600190039060005260206000200160009091909190915055826000018054905083600101600084815260200190815260200160002081905550600190506136f9565b600090505b92915050565b6000808360010160008481526020019081526020016000205490506000811461380757600060018261373191906143dd565b905060006001866000018054905061374991906143dd565b90508181146137b857600086600001828154811061376a57613769613f40565b5b906000526020600020015490508087600001848154811061378e5761378d613f40565b5b90600052602060002001819055508387600101600083815260200190815260200160002081905550505b856000018054806137cc576137cb614b70565b5b60019003818190600052602060002001600090559055856001016000868152602001908152602001600020600090556001935050505061380d565b60009150505b92915050565b600081600001805490509050919050565b600080836001016000848152602001908152602001600020541415905092915050565b604051806101000160405280600073ffffffffffffffffffffffffffffffffffffffff168152602001600073ffffffffffffffffffffffffffffffffffffffff168152602001600073ffffffffffffffffffffffffffffffffffffffff16815260200160008152602001600081526020016000815260200160008152602001600081525090565b6040518060800160405280600073ffffffffffffffffffffffffffffffffffffffff168152602001600073ffffffffffffffffffffffffffffffffffffffff16815260200160008152602001600081525090565b600080fd5b600073ffffffffffffffffffffffffffffffffffffffff82169050919050565b600061395282613927565b9050919050565b61396281613947565b811461396d57600080fd5b50565b60008135905061397f81613959565b92915050565b60006020828403121561399b5761399a613922565b5b60006139a984828501613970565b91505092915050565b6000819050919050565b6139c5816139b2565b82525050565b60006020820190506139e060008301846139bc565b92915050565b600081519050919050565b600082825260208201905092915050565b6000819050602082019050919050565b613a1b81613947565b82525050565b613a2a816139b2565b82525050565b61010082016000820151613a476000850182613a12565b506020820151613a5a6020850182613a12565b506040820151613a6d6040850182613a12565b506060820151613a806060850182613a21565b506080820151613a936080850182613a21565b5060a0820151613aa660a0850182613a21565b5060c0820151613ab960c0850182613a21565b5060e0820151613acc60e0850182613a21565b50505050565b6000613ade8383613a30565b6101008301905092915050565b6000602082019050919050565b6000613b03826139e6565b613b0d81856139f1565b9350613b1883613a02565b8060005b83811015613b49578151613b308882613ad2565b9750613b3b83613aeb565b925050600181019050613b1c565b5085935050505092915050565b60006020820190508181036000830152613b708184613af8565b905092915050565b613b81816139b2565b8114613b8c57600080fd5b50565b600081359050613b9e81613b78565b92915050565b600080600080600060a08688031215613bc057613bbf613922565b5b6000613bce88828901613970565b9550506020613bdf88828901613b8f565b9450506040613bf088828901613b8f565b9350506060613c0188828901613b8f565b9250506080613c1288828901613b8f565b9150509295509295909350565b60008060408385031215613c3657613c35613922565b5b6000613c4485828601613970565b9250506020613c5585828601613b8f565b9150509250929050565b608082016000820151613c756000850182613a12565b506020820151613c886020850182613a12565b506040820151613c9b6040850182613a21565b506060820151613cae6060850182613a21565b50505050565b6000608082019050613cc96000830184613c5f565b92915050565b600080600060608486031215613ce857613ce7613922565b5b6000613cf686828701613970565b9350506020613d0786828701613b8f565b9250506040613d1886828701613b8f565b9150509250925092565b600081519050919050565b600082825260208201905092915050565b6000819050602082019050919050565b608082016000820151613d646000850182613a12565b506020820151613d776020850182613a12565b506040820151613d8a6040850182613a21565b506060820151613d9d6060850182613a21565b50505050565b6000613daf8383613d4e565b60808301905092915050565b6000602082019050919050565b6000613dd382613d22565b613ddd8185613d2d565b9350613de883613d3e565b8060005b83811015613e19578151613e008882613da3565b9750613e0b83613dbb565b925050600181019050613dec565b5085935050505092915050565b60006020820190508181036000830152613e408184613dc8565b905092915050565b600067ffffffffffffffff82169050919050565b613e6581613e48565b8114613e7057600080fd5b50565b600081359050613e8281613e5c565b92915050565b600080600060608486031215613ea157613ea0613922565b5b6000613eaf86828701613970565b9350506020613ec086828701613b8f565b9250506040613ed186828701613e73565b9150509250925092565b60008115159050919050565b613ef081613edb565b82525050565b6000602082019050613f0b6000830184613ee7565b92915050565b7f4e487b7100000000000000000000000000000000000000000000000000000000600052604160045260246000fd5b7f4e487b7100000000000000000000000000000000000000000000000000000000600052603260045260246000fd5b7f4e487b7100000000000000000000000000000000000000000000000000000000600052601160045260246000fd5b6000613fa9826139b2565b91507fffffffffffffffffffffffffffffffffffffffffffffffffffffffffffffffff8203613fdb57613fda613f6f565b5b600182019050919050565b613fef81613947565b82525050565b600060408201905061400a6000830185613fe6565b61401760208301846139bc565b9392505050565b600082825260208201905092915050565b7f436f6e7472616374206973206e6f7420616e2045524334393037000000000000600082015250565b6000614065601a8361401e565b91506140708261402f565b602082019050919050565b6000602082019050818103600083015261409481614058565b9050919050565b6000815190506140aa81613959565b92915050565b6000602082840312156140c6576140c5613922565b5b60006140d48482850161409b565b91505092915050565b7f4e6f74206f776e6572206f66206e667400000000000000000000000000000000600082015250565b600061411360108361401e565b915061411e826140dd565b602082019050919050565b6000602082019050818103600083015261414281614106565b9050919050565b7f4e6f7420656e6f75676820657468657220666f72206c697374696e6720666565600082015250565b600061417f60208361401e565b915061418a82614149565b602082019050919050565b600060208201905081810360008301526141ae81614172565b9050919050565b7f52656e74616c2070726963652073686f756c642062652067726561746572207460008201527f68616e2030000000000000000000000000000000000000000000000000000000602082015250565b600061421160258361401e565b915061421c826141b5565b604082019050919050565b6000602082019050818103600083015261424081614204565b9050919050565b7f537461727420646174652063616e6e6f7420626520696e207468652070617374600082015250565b600061427d60208361401e565b915061428882614247565b602082019050919050565b600060208201905081810360008301526142ac81614270565b9050919050565b7f456e6420646174652063616e6e6f74206265206265666f72652074686520737460008201527f6172742064617465000000000000000000000000000000000000000000000000602082015250565b600061430f60288361401e565b915061431a826142b3565b604082019050919050565b6000602082019050818103600083015261433e81614302565b9050919050565b6000819050919050565b6000819050919050565b600061437461436f61436a84614345565b61434f565b6139b2565b9050919050565b61438481614359565b82525050565b600060a08201905061439f60008301886139bc565b6143ac60208301876139bc565b6143b960408301866139bc565b6143c660608301856139bc565b6143d3608083018461437b565b9695505050505050565b60006143e8826139b2565b91506143f3836139b2565b925082820390508181111561440b5761440a613f6f565b5b92915050565b7f4e487b7100000000000000000000000000000000000000000000000000000000600052601260045260246000fd5b600061444b826139b2565b9150614456836139b2565b92508261446657614465614411565b5b828204905092915050565b600061447c826139b2565b9150614487836139b2565b925082820190508082111561449f5761449e613f6f565b5b92915050565b60006144b0826139b2565b91506144bb836139b2565b92508282026144c9816139b2565b915082820484148315176144e0576144df613f6f565b5b5092915050565b7f4e6f7420656e6f75676820657468657220746f20636f76657220726566756e64600082015250565b600061451d60208361401e565b9150614528826144e7565b602082019050919050565b6000602082019050818103600083015261454c81614510565b9050919050565b600061456e61456961456484614345565b61434f565b613e48565b9050919050565b61457e81614553565b82525050565b600060608201905061459960008301866139bc565b6145a66020830185613fe6565b6145b36040830184614575565b949350505050565b7f436f6e7472616374206973206e6f7420616e2045524337323100000000000000600082015250565b60006145f160198361401e565b91506145fc826145bb565b602082019050919050565b60006020820190508181036000830152614620816145e4565b9050919050565b7f6c697374696e672070726963652073686f756c6420626520677265617465722060008201527f7468616e20300000000000000000000000000000000000000000000000000000602082015250565b600061468360268361401e565b915061468e82614627565b604082019050919050565b600060208201905081810360008301526146b281614676565b9050919050565b600081905092915050565b50565b60006146d46000836146b9565b91506146df826146c4565b600082019050919050565b60006146f5826146c7565b9150819050919050565b7f5472616e73666572206661696c65640000000000000000000000000000000000600082015250565b6000614735600f8361401e565b9150614740826146ff565b602082019050919050565b6000602082019050818103600083015261476481614728565b9050919050565b7f4e465420616c72656164792072656e7465640000000000000000000000000000600082015250565b60006147a160128361401e565b91506147ac8261476b565b602082019050919050565b600060208201905081810360008301526147d081614794565b9050919050565b60006147e282613e48565b91506147ed83613e48565b92508282026147fb81613e48565b915080821461480d5761480c613f6f565b5b5092915050565b600061481f82613e48565b915061482a83613e48565b9250828201905067ffffffffffffffff81111561484a57614849613f6f565b5b92915050565b7f4e6f7420656e6f75676820657468657220746f20636f7665722072656e74616c60008201527f20706572696f6400000000000000000000000000000000000000000000000000602082015250565b60006148ac60278361401e565b91506148b782614850565b604082019050919050565b600060208201905081810360008301526148db8161489f565b9050919050565b6148eb81613e48565b82525050565b600060608201905061490660008301866139bc565b6149136020830185613fe6565b61492060408301846148e2565b949350505050565b600060a08201905061493d60008301886139bc565b61494a60208301876139bc565b61495760408301866139bc565b61496460608301856148e2565b61497160808301846139bc565b9695505050505050565b60006060820190506149906000830186613fe6565b61499d60208301856139bc565b6149aa60408301846139bc565b949350505050565b60006060820190506149c76000830186613fe6565b6149d46020830185613fe6565b6149e160408301846139bc565b949350505050565b60007fffffffff0000000000000000000000000000000000000000000000000000000082169050919050565b614a1e816149e9565b82525050565b6000602082019050614a396000830184614a15565b92915050565b614a4881613edb565b8114614a5357600080fd5b50565b600081519050614a6581614a3f565b92915050565b600060208284031215614a8157614a80613922565b5b6000614a8f84828501614a56565b91505092915050565b7f5265656e7472616e637947756172643a207265656e7472616e742063616c6c00600082015250565b6000614ace601f8361401e565b9150614ad982614a98565b602082019050919050565b60006020820190508181036000830152614afd81614ac1565b9050919050565b7f436f756e7465723a2064656372656d656e74206f766572666c6f770000000000600082015250565b6000614b3a601b8361401e565b9150614b4582614b04565b602082019050919050565b60006020820190508181036000830152614b6981614b2d565b9050919050565b7f4e487b7100000000000000000000000000000000000000000000000000000000600052603160045260246000fdfea2646970667358221220548419d5535535786770c4c431614f3fd3a40eb4dcf4441b7604045d3236663b64736f6c63430008110033",
  "linkReferences": {},
  "deployedLinkReferences": {}
}