{
  "_format": "hh-sol-artifact-1",
  "contractName": "RentWrapper",
  "sourceName": "contracts/RentWrapper.sol",
  "abi": [
    {
      "inputs": [
        {
          "internalType": "address",
          "name": "underlyingToken_",
          "type": "address"
        },
        {
          "internalType": "string",
          "name": "name_",
          "type": "string"
        },
        {
          "internalType": "string",
          "name": "symbol_",
          "type": "string"
        }
      ],
      "stateMutability": "nonpayable",
      "type": "constructor"
    },
    {
      "anonymous": false,
      "inputs": [
        {
          "indexed": true,
          "internalType": "address",
          "name": "owner",
          "type": "address"
        },
        {
          "indexed": true,
          "internalType": "address",
          "name": "approved",
          "type": "address"
        },
        {
          "indexed": true,
          "internalType": "uint256",
          "name": "tokenId",
          "type": "uint256"
        }
      ],
      "name": "Approval",
      "type": "event"
    },
    {
      "anonymous": false,
      "inputs": [
        {
          "indexed": true,
          "internalType": "address",
          "name": "owner",
          "type": "address"
        },
        {
          "indexed": true,
          "internalType": "address",
          "name": "operator",
          "type": "address"
        },
        {
          "indexed": false,
          "internalType": "bool",
          "name": "approved",
          "type": "bool"
        }
      ],
      "name": "ApprovalForAll",
      "type": "event"
    },
    {
      "anonymous": false,
      "inputs": [
        {
          "indexed": true,
          "internalType": "address",
          "name": "caller",
          "type": "address"
        },
        {
          "indexed": true,
          "internalType": "uint256",
          "name": "tokenId",
          "type": "uint256"
        }
      ],
      "name": "Deposit",
      "type": "event"
    },
    {
      "anonymous": false,
      "inputs": [
        {
          "indexed": true,
          "internalType": "address",
          "name": "from",
          "type": "address"
        },
        {
          "indexed": true,
          "internalType": "address",
          "name": "to",
          "type": "address"
        },
        {
          "indexed": true,
          "internalType": "uint256",
          "name": "tokenId",
          "type": "uint256"
        }
      ],
      "name": "Transfer",
      "type": "event"
    },
    {
      "anonymous": false,
      "inputs": [
        {
          "indexed": true,
          "internalType": "uint256",
          "name": "tokenId",
          "type": "uint256"
        },
        {
          "indexed": true,
          "internalType": "address",
          "name": "user",
          "type": "address"
        },
        {
          "indexed": false,
          "internalType": "uint64",
          "name": "expires",
          "type": "uint64"
        }
      ],
      "name": "UpdateUser",
      "type": "event"
    },
    {
      "anonymous": false,
      "inputs": [
        {
          "indexed": true,
          "internalType": "address",
          "name": "caller",
          "type": "address"
        },
        {
          "indexed": true,
          "internalType": "uint256",
          "name": "tokenId",
          "type": "uint256"
        }
      ],
      "name": "Withdraw",
      "type": "event"
    },
    {
      "inputs": [
        {
          "internalType": "address",
          "name": "to",
          "type": "address"
        },
        {
          "internalType": "uint256",
          "name": "tokenId",
          "type": "uint256"
        }
      ],
      "name": "approve",
      "outputs": [],
      "stateMutability": "nonpayable",
      "type": "function"
    },
    {
      "inputs": [
        {
          "internalType": "address",
          "name": "owner",
          "type": "address"
        }
      ],
      "name": "balanceOf",
      "outputs": [
        {
          "internalType": "uint256",
          "name": "",
          "type": "uint256"
        }
      ],
      "stateMutability": "view",
      "type": "function"
    },
    {
      "inputs": [
        {
          "internalType": "uint256",
          "name": "tokenId",
          "type": "uint256"
        }
      ],
      "name": "deposit",
      "outputs": [],
      "stateMutability": "nonpayable",
      "type": "function"
    },
    {
      "inputs": [],
      "name": "generalToken",
      "outputs": [
        {
          "internalType": "address",
          "name": "",
          "type": "address"
        }
      ],
      "stateMutability": "view",
      "type": "function"
    },
    {
      "inputs": [
        {
          "internalType": "uint256",
          "name": "tokenId",
          "type": "uint256"
        }
      ],
      "name": "getApproved",
      "outputs": [
        {
          "internalType": "address",
          "name": "",
          "type": "address"
        }
      ],
      "stateMutability": "view",
      "type": "function"
    },
    {
      "inputs": [
        {
          "internalType": "address",
          "name": "owner",
          "type": "address"
        },
        {
          "internalType": "address",
          "name": "operator",
          "type": "address"
        }
      ],
      "name": "isApprovedForAll",
      "outputs": [
        {
          "internalType": "bool",
          "name": "",
          "type": "bool"
        }
      ],
      "stateMutability": "view",
      "type": "function"
    },
    {
      "inputs": [],
      "name": "name",
      "outputs": [
        {
          "internalType": "string",
          "name": "",
          "type": "string"
        }
      ],
      "stateMutability": "view",
      "type": "function"
    },
    {
      "inputs": [
        {
          "internalType": "address",
          "name": "",
          "type": "address"
        },
        {
          "internalType": "address",
          "name": "",
          "type": "address"
        },
        {
          "internalType": "uint256",
          "name": "",
          "type": "uint256"
        },
        {
          "internalType": "bytes",
          "name": "",
          "type": "bytes"
        }
      ],
      "name": "onERC721Received",
      "outputs": [
        {
          "internalType": "bytes4",
          "name": "",
          "type": "bytes4"
        }
      ],
      "stateMutability": "nonpayable",
      "type": "function"
    },
    {
      "inputs": [
        {
          "internalType": "uint256",
          "name": "tokenId",
          "type": "uint256"
        }
      ],
      "name": "ownerOf",
      "outputs": [
        {
          "internalType": "address",
          "name": "",
          "type": "address"
        }
      ],
      "stateMutability": "view",
      "type": "function"
    },
    {
      "inputs": [
        {
          "internalType": "address",
          "name": "from",
          "type": "address"
        },
        {
          "internalType": "address",
          "name": "to",
          "type": "address"
        },
        {
          "internalType": "uint256",
          "name": "tokenId",
          "type": "uint256"
        }
      ],
      "name": "safeTransferFrom",
      "outputs": [],
      "stateMutability": "nonpayable",
      "type": "function"
    },
    {
      "inputs": [
        {
          "internalType": "address",
          "name": "from",
          "type": "address"
        },
        {
          "internalType": "address",
          "name": "to",
          "type": "address"
        },
        {
          "internalType": "uint256",
          "name": "tokenId",
          "type": "uint256"
        },
        {
          "internalType": "bytes",
          "name": "data",
          "type": "bytes"
        }
      ],
      "name": "safeTransferFrom",
      "outputs": [],
      "stateMutability": "nonpayable",
      "type": "function"
    },
    {
      "inputs": [
        {
          "internalType": "address",
          "name": "operator",
          "type": "address"
        },
        {
          "internalType": "bool",
          "name": "approved",
          "type": "bool"
        }
      ],
      "name": "setApprovalForAll",
      "outputs": [],
      "stateMutability": "nonpayable",
      "type": "function"
    },
    {
      "inputs": [
        {
          "internalType": "uint256",
          "name": "tokenId",
          "type": "uint256"
        },
        {
          "internalType": "address",
          "name": "user",
          "type": "address"
        },
        {
          "internalType": "uint64",
          "name": "expires",
          "type": "uint64"
        }
      ],
      "name": "setUser",
      "outputs": [],
      "stateMutability": "nonpayable",
      "type": "function"
    },
    {
      "inputs": [
        {
          "internalType": "bytes4",
          "name": "interfaceId",
          "type": "bytes4"
        }
      ],
      "name": "supportsInterface",
      "outputs": [
        {
          "internalType": "bool",
          "name": "",
          "type": "bool"
        }
      ],
      "stateMutability": "view",
      "type": "function"
    },
    {
      "inputs": [],
      "name": "symbol",
      "outputs": [
        {
          "internalType": "string",
          "name": "",
          "type": "string"
        }
      ],
      "stateMutability": "view",
      "type": "function"
    },
    {
      "inputs": [
        {
          "internalType": "uint256",
          "name": "tokenId",
          "type": "uint256"
        }
      ],
      "name": "tokenURI",
      "outputs": [
        {
          "internalType": "string",
          "name": "",
          "type": "string"
        }
      ],
      "stateMutability": "view",
      "type": "function"
    },
    {
      "inputs": [
        {
          "internalType": "address",
          "name": "from",
          "type": "address"
        },
        {
          "internalType": "address",
          "name": "to",
          "type": "address"
        },
        {
          "internalType": "uint256",
          "name": "tokenId",
          "type": "uint256"
        }
      ],
      "name": "transferFrom",
      "outputs": [],
      "stateMutability": "nonpayable",
      "type": "function"
    },
    {
      "inputs": [
        {
          "internalType": "uint256",
          "name": "tokenId",
          "type": "uint256"
        }
      ],
      "name": "userExpires",
      "outputs": [
        {
          "internalType": "uint256",
          "name": "",
          "type": "uint256"
        }
      ],
      "stateMutability": "view",
      "type": "function"
    },
    {
      "inputs": [
        {
          "internalType": "uint256",
          "name": "tokenId",
          "type": "uint256"
        }
      ],
      "name": "userOf",
      "outputs": [
        {
          "internalType": "address",
          "name": "",
          "type": "address"
        }
      ],
      "stateMutability": "view",
      "type": "function"
    },
    {
      "inputs": [
        {
          "internalType": "uint256",
          "name": "tokenId",
          "type": "uint256"
        }
      ],
      "name": "withdraw",
      "outputs": [],
      "stateMutability": "nonpayable",
      "type": "function"
    }
  ],
  "bytecode": "0x60806040523480156200001157600080fd5b50604051620039bf380380620039bf8339818101604052810190620000379190620002a5565b8181818181600090816200004c91906200058a565b5080600190816200005e91906200058a565b505050505082600860006101000a81548173ffffffffffffffffffffffffffffffffffffffff021916908373ffffffffffffffffffffffffffffffffffffffff16021790555050505062000671565b6000604051905090565b600080fd5b600080fd5b600073ffffffffffffffffffffffffffffffffffffffff82169050919050565b6000620000ee82620000c1565b9050919050565b6200010081620000e1565b81146200010c57600080fd5b50565b6000815190506200012081620000f5565b92915050565b600080fd5b600080fd5b6000601f19601f8301169050919050565b7f4e487b7100000000000000000000000000000000000000000000000000000000600052604160045260246000fd5b6200017b8262000130565b810181811067ffffffffffffffff821117156200019d576200019c62000141565b5b80604052505050565b6000620001b2620000ad565b9050620001c0828262000170565b919050565b600067ffffffffffffffff821115620001e357620001e262000141565b5b620001ee8262000130565b9050602081019050919050565b60005b838110156200021b578082015181840152602081019050620001fe565b60008484015250505050565b60006200023e6200023884620001c5565b620001a6565b9050828152602081018484840111156200025d576200025c6200012b565b5b6200026a848285620001fb565b509392505050565b600082601f8301126200028a576200028962000126565b5b81516200029c84826020860162000227565b91505092915050565b600080600060608486031215620002c157620002c0620000b7565b5b6000620002d1868287016200010f565b935050602084015167ffffffffffffffff811115620002f557620002f4620000bc565b5b620003038682870162000272565b925050604084015167ffffffffffffffff811115620003275762000326620000bc565b5b620003358682870162000272565b9150509250925092565b600081519050919050565b7f4e487b7100000000000000000000000000000000000000000000000000000000600052602260045260246000fd5b600060028204905060018216806200039257607f821691505b602082108103620003a857620003a76200034a565b5b50919050565b60008190508160005260206000209050919050565b60006020601f8301049050919050565b600082821b905092915050565b600060088302620004127fffffffffffffffffffffffffffffffffffffffffffffffffffffffffffffffff82620003d3565b6200041e8683620003d3565b95508019841693508086168417925050509392505050565b6000819050919050565b6000819050919050565b60006200046b620004656200045f8462000436565b62000440565b62000436565b9050919050565b6000819050919050565b62000487836200044a565b6200049f620004968262000472565b848454620003e0565b825550505050565b600090565b620004b6620004a7565b620004c38184846200047c565b505050565b5b81811015620004eb57620004df600082620004ac565b600181019050620004c9565b5050565b601f8211156200053a576200050481620003ae565b6200050f84620003c3565b810160208510156200051f578190505b620005376200052e85620003c3565b830182620004c8565b50505b505050565b600082821c905092915050565b60006200055f600019846008026200053f565b1980831691505092915050565b60006200057a83836200054c565b9150826002028217905092915050565b62000595826200033f565b67ffffffffffffffff811115620005b157620005b062000141565b5b620005bd825462000379565b620005ca828285620004ef565b600060209050601f831160018114620006025760008415620005ed578287015190505b620005f985826200056c565b86555062000669565b601f1984166200061286620003ae565b60005b828110156200063c5784890151825560018201915060208501945060208101905062000615565b868310156200065c578489015162000658601f8916826200054c565b8355505b6001600288020188555050505b505050505050565b61333e80620006816000396000f3fe608060405234801561001057600080fd5b506004361061012c5760003560e01c80638fc88c48116100ad578063c2f1f14a11610071578063c2f1f14a14610351578063c87b56dd14610381578063e030565e146103b1578063e985e9c5146103cd578063f1dc152c146103fd5761012c565b80638fc88c48146102af57806395d89b41146102df578063a22cb465146102fd578063b6b55f2514610319578063b88d4fde146103355761012c565b806323b872dd116100f457806323b872dd146101fb5780632e1a7d4d1461021757806342842e0e146102335780636352211e1461024f57806370a082311461027f5761012c565b806301ffc9a71461013157806306fdde0314610161578063081812fc1461017f578063095ea7b3146101af578063150b7a02146101cb575b600080fd5b61014b6004803603810190610146919061221e565b61041b565b6040516101589190612266565b60405180910390f35b610169610495565b6040516101769190612311565b60405180910390f35b61019960048036038101906101949190612369565b610527565b6040516101a691906123d7565b60405180910390f35b6101c960048036038101906101c4919061241e565b61056d565b005b6101e560048036038101906101e09190612593565b610684565b6040516101f29190612625565b60405180910390f35b61021560048036038101906102109190612640565b610698565b005b610231600480360381019061022c9190612369565b6106f8565b005b61024d60048036038101906102489190612640565b610973565b005b61026960048036038101906102649190612369565b610993565b60405161027691906123d7565b60405180910390f35b61029960048036038101906102949190612693565b610a19565b6040516102a691906126cf565b60405180910390f35b6102c960048036038101906102c49190612369565b610ad0565b6040516102d691906126cf565b60405180910390f35b6102e7610b0e565b6040516102f49190612311565b60405180910390f35b61031760048036038101906103129190612716565b610ba0565b005b610333600480360381019061032e9190612369565b610bb6565b005b61034f600480360381019061034a9190612593565b610dc3565b005b61036b60048036038101906103669190612369565b610e25565b60405161037891906123d7565b60405180910390f35b61039b60048036038101906103969190612369565b610eaa565b6040516103a89190612311565b60405180910390f35b6103cb60048036038101906103c69190612796565b610f54565b005b6103e760048036038101906103e291906127e9565b611077565b6040516103f49190612266565b60405180910390f35b61040561110b565b60405161041291906123d7565b60405180910390f35b60007fad092b5c000000000000000000000000000000000000000000000000000000007bffffffffffffffffffffffffffffffffffffffffffffffffffffffff1916827bffffffffffffffffffffffffffffffffffffffffffffffffffffffff1916148061048e575061048d82611135565b5b9050919050565b6060600080546104a490612858565b80601f01602080910402602001604051908101604052809291908181526020018280546104d090612858565b801561051d5780601f106104f25761010080835404028352916020019161051d565b820191906000526020600020905b81548152906001019060200180831161050057829003601f168201915b5050505050905090565b600061053282611217565b6004600083815260200190815260200160002060009054906101000a900473ffffffffffffffffffffffffffffffffffffffff169050919050565b600061057882610993565b90508073ffffffffffffffffffffffffffffffffffffffff168373ffffffffffffffffffffffffffffffffffffffff16036105e8576040517f08c379a00000000000000000000000000000000000000000000000000000000081526004016105df906128fb565b60405180910390fd5b8073ffffffffffffffffffffffffffffffffffffffff16610607611262565b73ffffffffffffffffffffffffffffffffffffffff161480610636575061063581610630611262565b611077565b5b610675576040517f08c379a000000000000000000000000000000000000000000000000000000000815260040161066c9061298d565b60405180910390fd5b61067f838361126a565b505050565b600063150b7a0260e01b9050949350505050565b6106a96106a3611262565b82611323565b6106e8576040517f08c379a00000000000000000000000000000000000000000000000000000000081526004016106df90612a1f565b60405180910390fd5b6106f38383836113b8565b505050565b6000600860009054906101000a900473ffffffffffffffffffffffffffffffffffffffff1673ffffffffffffffffffffffffffffffffffffffff16636352211e836040518263ffffffff1660e01b815260040161075591906126cf565b602060405180830381865afa158015610772573d6000803e3d6000fd5b505050506040513d601f19601f820116820180604052508101906107969190612a54565b90506107a182610993565b73ffffffffffffffffffffffffffffffffffffffff166107bf611262565b73ffffffffffffffffffffffffffffffffffffffff1614610815576040517f08c379a000000000000000000000000000000000000000000000000000000000815260040161080c90612acd565b60405180910390fd5b8073ffffffffffffffffffffffffffffffffffffffff163073ffffffffffffffffffffffffffffffffffffffff1614610883576040517f08c379a000000000000000000000000000000000000000000000000000000000815260040161087a90612b39565b60405180910390fd5b61088c826116b1565b600860009054906101000a900473ffffffffffffffffffffffffffffffffffffffff1673ffffffffffffffffffffffffffffffffffffffff166342842e0e306108d3611262565b856040518463ffffffff1660e01b81526004016108f293929190612b59565b600060405180830381600087803b15801561090c57600080fd5b505af1158015610920573d6000803e3d6000fd5b505050508161092d611262565b73ffffffffffffffffffffffffffffffffffffffff167f884edad9ce6fa2440d8a54cc123490eb96d2768479d49ff9c7366125a942436460405160405180910390a35050565b61098e83838360405180602001604052806000815250610dc3565b505050565b60008061099f83611704565b9050600073ffffffffffffffffffffffffffffffffffffffff168173ffffffffffffffffffffffffffffffffffffffff1603610a10576040517f08c379a0000000000000000000000000000000000000000000000000000000008152600401610a0790612bdc565b60405180910390fd5b80915050919050565b60008073ffffffffffffffffffffffffffffffffffffffff168273ffffffffffffffffffffffffffffffffffffffff1603610a89576040517f08c379a0000000000000000000000000000000000000000000000000000000008152600401610a8090612c6e565b60405180910390fd5b600360008373ffffffffffffffffffffffffffffffffffffffff1673ffffffffffffffffffffffffffffffffffffffff168152602001908152602001600020549050919050565b60006007600083815260200190815260200160002060000160149054906101000a900467ffffffffffffffff1667ffffffffffffffff169050919050565b606060018054610b1d90612858565b80601f0160208091040260200160405190810160405280929190818152602001828054610b4990612858565b8015610b965780601f10610b6b57610100808354040283529160200191610b96565b820191906000526020600020905b815481529060010190602001808311610b7957829003601f168201915b5050505050905090565b610bb2610bab611262565b8383611741565b5050565b6000600860009054906101000a900473ffffffffffffffffffffffffffffffffffffffff1673ffffffffffffffffffffffffffffffffffffffff16636352211e836040518263ffffffff1660e01b8152600401610c1391906126cf565b602060405180830381865afa158015610c30573d6000803e3d6000fd5b505050506040513d601f19601f82011682018060405250810190610c549190612a54565b90508073ffffffffffffffffffffffffffffffffffffffff16610c75611262565b73ffffffffffffffffffffffffffffffffffffffff1614610ccb576040517f08c379a0000000000000000000000000000000000000000000000000000000008152600401610cc290612acd565b60405180910390fd5b600860009054906101000a900473ffffffffffffffffffffffffffffffffffffffff1673ffffffffffffffffffffffffffffffffffffffff166342842e0e610d11611262565b30856040518463ffffffff1660e01b8152600401610d3193929190612b59565b600060405180830381600087803b158015610d4b57600080fd5b505af1158015610d5f573d6000803e3d6000fd5b50505050610d74610d6e611262565b836118ad565b81610d7d611262565b73ffffffffffffffffffffffffffffffffffffffff167fe1fffcc4923d04b559f4d29a8bfc6cda04eb5b0d3c460751c2402c5c5cc9109c60405160405180910390a35050565b610dd4610dce611262565b83611323565b610e13576040517f08c379a0000000000000000000000000000000000000000000000000000000008152600401610e0a90612a1f565b60405180910390fd5b610e1f84848484611aca565b50505050565b6000426007600084815260200190815260200160002060000160149054906101000a900467ffffffffffffffff1667ffffffffffffffff1610610ea0576007600083815260200190815260200160002060000160009054906101000a900473ffffffffffffffffffffffffffffffffffffffff169050610ea5565b600090505b919050565b6060600860009054906101000a900473ffffffffffffffffffffffffffffffffffffffff1673ffffffffffffffffffffffffffffffffffffffff1663c87b56dd836040518263ffffffff1660e01b8152600401610f0791906126cf565b600060405180830381865afa158015610f24573d6000803e3d6000fd5b505050506040513d6000823e3d601f19601f82011682018060405250810190610f4d9190612d2f565b9050919050565b610f5e3384611323565b610f9d576040517f08c379a0000000000000000000000000000000000000000000000000000000008152600401610f9490612dea565b60405180910390fd5b6000600760008581526020019081526020016000209050828160000160006101000a81548173ffffffffffffffffffffffffffffffffffffffff021916908373ffffffffffffffffffffffffffffffffffffffff160217905550818160000160146101000a81548167ffffffffffffffff021916908367ffffffffffffffff1602179055508273ffffffffffffffffffffffffffffffffffffffff16847f4e06b4e7000e659094299b3533b47b6aa8ad048e95e872d23d1f4ee55af89cfe846040516110699190612e19565b60405180910390a350505050565b6000600560008473ffffffffffffffffffffffffffffffffffffffff1673ffffffffffffffffffffffffffffffffffffffff16815260200190815260200160002060008373ffffffffffffffffffffffffffffffffffffffff1673ffffffffffffffffffffffffffffffffffffffff16815260200190815260200160002060009054906101000a900460ff16905092915050565b6000600860009054906101000a900473ffffffffffffffffffffffffffffffffffffffff16905090565b60007f80ac58cd000000000000000000000000000000000000000000000000000000007bffffffffffffffffffffffffffffffffffffffffffffffffffffffff1916827bffffffffffffffffffffffffffffffffffffffffffffffffffffffff1916148061120057507f5b5e139f000000000000000000000000000000000000000000000000000000007bffffffffffffffffffffffffffffffffffffffffffffffffffffffff1916827bffffffffffffffffffffffffffffffffffffffffffffffffffffffff1916145b80611210575061120f82611b26565b5b9050919050565b61122081611b90565b61125f576040517f08c379a000000000000000000000000000000000000000000000000000000000815260040161125690612bdc565b60405180910390fd5b50565b600033905090565b816004600083815260200190815260200160002060006101000a81548173ffffffffffffffffffffffffffffffffffffffff021916908373ffffffffffffffffffffffffffffffffffffffff160217905550808273ffffffffffffffffffffffffffffffffffffffff166112dd83610993565b73ffffffffffffffffffffffffffffffffffffffff167f8c5be1e5ebec7d5bd14f71427d1e84f3dd0314c0f7b2291e5b200ac8c7c3b92560405160405180910390a45050565b60008061132f83610993565b90508073ffffffffffffffffffffffffffffffffffffffff168473ffffffffffffffffffffffffffffffffffffffff16148061137157506113708185611077565b5b806113af57508373ffffffffffffffffffffffffffffffffffffffff1661139784610527565b73ffffffffffffffffffffffffffffffffffffffff16145b91505092915050565b8273ffffffffffffffffffffffffffffffffffffffff166113d882610993565b73ffffffffffffffffffffffffffffffffffffffff161461142e576040517f08c379a000000000000000000000000000000000000000000000000000000000815260040161142590612ea6565b60405180910390fd5b600073ffffffffffffffffffffffffffffffffffffffff168273ffffffffffffffffffffffffffffffffffffffff160361149d576040517f08c379a000000000000000000000000000000000000000000000000000000000815260040161149490612f38565b60405180910390fd5b6114aa8383836001611bd1565b8273ffffffffffffffffffffffffffffffffffffffff166114ca82610993565b73ffffffffffffffffffffffffffffffffffffffff1614611520576040517f08c379a000000000000000000000000000000000000000000000000000000000815260040161151790612ea6565b60405180910390fd5b6004600082815260200190815260200160002060006101000a81549073ffffffffffffffffffffffffffffffffffffffff02191690556001600360008573ffffffffffffffffffffffffffffffffffffffff1673ffffffffffffffffffffffffffffffffffffffff168152602001908152602001600020600082825403925050819055506001600360008473ffffffffffffffffffffffffffffffffffffffff1673ffffffffffffffffffffffffffffffffffffffff16815260200190815260200160002060008282540192505081905550816002600083815260200190815260200160002060006101000a81548173ffffffffffffffffffffffffffffffffffffffff021916908373ffffffffffffffffffffffffffffffffffffffff160217905550808273ffffffffffffffffffffffffffffffffffffffff168473ffffffffffffffffffffffffffffffffffffffff167fddf252ad1be2c89b69c2b068fc378daa952ba7f163c4a11628f55a4df523b3ef60405160405180910390a46116ac8383836001611d31565b505050565b6116ba81611d37565b60006006600083815260200190815260200160002080546116da90612858565b905014611701576006600082815260200190815260200160002060006117009190612155565b5b50565b60006002600083815260200190815260200160002060009054906101000a900473ffffffffffffffffffffffffffffffffffffffff169050919050565b8173ffffffffffffffffffffffffffffffffffffffff168373ffffffffffffffffffffffffffffffffffffffff16036117af576040517f08c379a00000000000000000000000000000000000000000000000000000000081526004016117a690612fa4565b60405180910390fd5b80600560008573ffffffffffffffffffffffffffffffffffffffff1673ffffffffffffffffffffffffffffffffffffffff16815260200190815260200160002060008473ffffffffffffffffffffffffffffffffffffffff1673ffffffffffffffffffffffffffffffffffffffff16815260200190815260200160002060006101000a81548160ff0219169083151502179055508173ffffffffffffffffffffffffffffffffffffffff168373ffffffffffffffffffffffffffffffffffffffff167f17307eab39ab6107e8899845ad3d59bd9653f200f220920489ca2b5937696c31836040516118a09190612266565b60405180910390a3505050565b600073ffffffffffffffffffffffffffffffffffffffff168273ffffffffffffffffffffffffffffffffffffffff160361191c576040517f08c379a000000000000000000000000000000000000000000000000000000000815260040161191390613010565b60405180910390fd5b61192581611b90565b15611965576040517f08c379a000000000000000000000000000000000000000000000000000000000815260040161195c9061307c565b60405180910390fd5b611973600083836001611bd1565b61197c81611b90565b156119bc576040517f08c379a00000000000000000000000000000000000000000000000000000000081526004016119b39061307c565b60405180910390fd5b6001600360008473ffffffffffffffffffffffffffffffffffffffff1673ffffffffffffffffffffffffffffffffffffffff16815260200190815260200160002060008282540192505081905550816002600083815260200190815260200160002060006101000a81548173ffffffffffffffffffffffffffffffffffffffff021916908373ffffffffffffffffffffffffffffffffffffffff160217905550808273ffffffffffffffffffffffffffffffffffffffff16600073ffffffffffffffffffffffffffffffffffffffff167fddf252ad1be2c89b69c2b068fc378daa952ba7f163c4a11628f55a4df523b3ef60405160405180910390a4611ac6600083836001611d31565b5050565b611ad58484846113b8565b611ae184848484611e85565b611b20576040517f08c379a0000000000000000000000000000000000000000000000000000000008152600401611b179061310e565b60405180910390fd5b50505050565b60007f01ffc9a7000000000000000000000000000000000000000000000000000000007bffffffffffffffffffffffffffffffffffffffffffffffffffffffff1916827bffffffffffffffffffffffffffffffffffffffffffffffffffffffff1916149050919050565b60008073ffffffffffffffffffffffffffffffffffffffff16611bb283611704565b73ffffffffffffffffffffffffffffffffffffffff1614159050919050565b611bdd8484848461200c565b8273ffffffffffffffffffffffffffffffffffffffff168473ffffffffffffffffffffffffffffffffffffffff1614158015611c7c5750600073ffffffffffffffffffffffffffffffffffffffff166007600084815260200190815260200160002060000160009054906101000a900473ffffffffffffffffffffffffffffffffffffffff1673ffffffffffffffffffffffffffffffffffffffff1614155b15611d2b5760076000838152602001908152602001600020600080820160006101000a81549073ffffffffffffffffffffffffffffffffffffffff02191690556000820160146101000a81549067ffffffffffffffff02191690555050600073ffffffffffffffffffffffffffffffffffffffff16827f4e06b4e7000e659094299b3533b47b6aa8ad048e95e872d23d1f4ee55af89cfe6000604051611d229190613173565b60405180910390a35b50505050565b50505050565b6000611d4282610993565b9050611d52816000846001611bd1565b611d5b82610993565b90506004600083815260200190815260200160002060006101000a81549073ffffffffffffffffffffffffffffffffffffffff02191690556001600360008373ffffffffffffffffffffffffffffffffffffffff1673ffffffffffffffffffffffffffffffffffffffff168152602001908152602001600020600082825403925050819055506002600083815260200190815260200160002060006101000a81549073ffffffffffffffffffffffffffffffffffffffff021916905581600073ffffffffffffffffffffffffffffffffffffffff168273ffffffffffffffffffffffffffffffffffffffff167fddf252ad1be2c89b69c2b068fc378daa952ba7f163c4a11628f55a4df523b3ef60405160405180910390a4611e81816000846001611d31565b5050565b6000611ea68473ffffffffffffffffffffffffffffffffffffffff16612132565b15611fff578373ffffffffffffffffffffffffffffffffffffffff1663150b7a02611ecf611262565b8786866040518563ffffffff1660e01b8152600401611ef194939291906131e3565b6020604051808303816000875af1925050508015611f2d57506040513d601f19601f82011682018060405250810190611f2a9190613244565b60015b611faf573d8060008114611f5d576040519150601f19603f3d011682016040523d82523d6000602084013e611f62565b606091505b506000815103611fa7576040517f08c379a0000000000000000000000000000000000000000000000000000000008152600401611f9e9061310e565b60405180910390fd5b805181602001fd5b63150b7a0260e01b7bffffffffffffffffffffffffffffffffffffffffffffffffffffffff1916817bffffffffffffffffffffffffffffffffffffffffffffffffffffffff191614915050612004565b600190505b949350505050565b600181111561212c57600073ffffffffffffffffffffffffffffffffffffffff168473ffffffffffffffffffffffffffffffffffffffff16146120a05780600360008673ffffffffffffffffffffffffffffffffffffffff1673ffffffffffffffffffffffffffffffffffffffff168152602001908152602001600020600082825461209891906132a0565b925050819055505b600073ffffffffffffffffffffffffffffffffffffffff168373ffffffffffffffffffffffffffffffffffffffff161461212b5780600360008573ffffffffffffffffffffffffffffffffffffffff1673ffffffffffffffffffffffffffffffffffffffff168152602001908152602001600020600082825461212391906132d4565b925050819055505b5b50505050565b6000808273ffffffffffffffffffffffffffffffffffffffff163b119050919050565b50805461216190612858565b6000825580601f106121735750612192565b601f0160209004906000526020600020908101906121919190612195565b5b50565b5b808211156121ae576000816000905550600101612196565b5090565b6000604051905090565b600080fd5b600080fd5b60007fffffffff0000000000000000000000000000000000000000000000000000000082169050919050565b6121fb816121c6565b811461220657600080fd5b50565b600081359050612218816121f2565b92915050565b600060208284031215612234576122336121bc565b5b600061224284828501612209565b91505092915050565b60008115159050919050565b6122608161224b565b82525050565b600060208201905061227b6000830184612257565b92915050565b600081519050919050565b600082825260208201905092915050565b60005b838110156122bb5780820151818401526020810190506122a0565b60008484015250505050565b6000601f19601f8301169050919050565b60006122e382612281565b6122ed818561228c565b93506122fd81856020860161229d565b612306816122c7565b840191505092915050565b6000602082019050818103600083015261232b81846122d8565b905092915050565b6000819050919050565b61234681612333565b811461235157600080fd5b50565b6000813590506123638161233d565b92915050565b60006020828403121561237f5761237e6121bc565b5b600061238d84828501612354565b91505092915050565b600073ffffffffffffffffffffffffffffffffffffffff82169050919050565b60006123c182612396565b9050919050565b6123d1816123b6565b82525050565b60006020820190506123ec60008301846123c8565b92915050565b6123fb816123b6565b811461240657600080fd5b50565b600081359050612418816123f2565b92915050565b60008060408385031215612435576124346121bc565b5b600061244385828601612409565b925050602061245485828601612354565b9150509250929050565b600080fd5b600080fd5b7f4e487b7100000000000000000000000000000000000000000000000000000000600052604160045260246000fd5b6124a0826122c7565b810181811067ffffffffffffffff821117156124bf576124be612468565b5b80604052505050565b60006124d26121b2565b90506124de8282612497565b919050565b600067ffffffffffffffff8211156124fe576124fd612468565b5b612507826122c7565b9050602081019050919050565b82818337600083830152505050565b6000612536612531846124e3565b6124c8565b90508281526020810184848401111561255257612551612463565b5b61255d848285612514565b509392505050565b600082601f83011261257a5761257961245e565b5b813561258a848260208601612523565b91505092915050565b600080600080608085870312156125ad576125ac6121bc565b5b60006125bb87828801612409565b94505060206125cc87828801612409565b93505060406125dd87828801612354565b925050606085013567ffffffffffffffff8111156125fe576125fd6121c1565b5b61260a87828801612565565b91505092959194509250565b61261f816121c6565b82525050565b600060208201905061263a6000830184612616565b92915050565b600080600060608486031215612659576126586121bc565b5b600061266786828701612409565b935050602061267886828701612409565b925050604061268986828701612354565b9150509250925092565b6000602082840312156126a9576126a86121bc565b5b60006126b784828501612409565b91505092915050565b6126c981612333565b82525050565b60006020820190506126e460008301846126c0565b92915050565b6126f38161224b565b81146126fe57600080fd5b50565b600081359050612710816126ea565b92915050565b6000806040838503121561272d5761272c6121bc565b5b600061273b85828601612409565b925050602061274c85828601612701565b9150509250929050565b600067ffffffffffffffff82169050919050565b61277381612756565b811461277e57600080fd5b50565b6000813590506127908161276a565b92915050565b6000806000606084860312156127af576127ae6121bc565b5b60006127bd86828701612354565b93505060206127ce86828701612409565b92505060406127df86828701612781565b9150509250925092565b60008060408385031215612800576127ff6121bc565b5b600061280e85828601612409565b925050602061281f85828601612409565b9150509250929050565b7f4e487b7100000000000000000000000000000000000000000000000000000000600052602260045260246000fd5b6000600282049050600182168061287057607f821691505b60208210810361288357612882612829565b5b50919050565b7f4552433732313a20617070726f76616c20746f2063757272656e74206f776e6560008201527f7200000000000000000000000000000000000000000000000000000000000000602082015250565b60006128e560218361228c565b91506128f082612889565b604082019050919050565b60006020820190508181036000830152612914816128d8565b9050919050565b7f4552433732313a20617070726f76652063616c6c6572206973206e6f7420746f60008201527f6b656e206f776e6572206f7220617070726f76656420666f7220616c6c000000602082015250565b6000612977603d8361228c565b91506129828261291b565b604082019050919050565b600060208201905081810360008301526129a68161296a565b9050919050565b7f4552433732313a2063616c6c6572206973206e6f7420746f6b656e206f776e6560008201527f72206f7220617070726f76656400000000000000000000000000000000000000602082015250565b6000612a09602d8361228c565b9150612a14826129ad565b604082019050919050565b60006020820190508181036000830152612a38816129fc565b9050919050565b600081519050612a4e816123f2565b92915050565b600060208284031215612a6a57612a696121bc565b5b6000612a7884828501612a3f565b91505092915050565b7f6f6e6c79206f776e65722063616e2063616c6c00000000000000000000000000600082015250565b6000612ab760138361228c565b9150612ac282612a81565b602082019050919050565b60006020820190508181036000830152612ae681612aaa565b9050919050565b7f696e76616c696420746f6b656e49640000000000000000000000000000000000600082015250565b6000612b23600f8361228c565b9150612b2e82612aed565b602082019050919050565b60006020820190508181036000830152612b5281612b16565b9050919050565b6000606082019050612b6e60008301866123c8565b612b7b60208301856123c8565b612b8860408301846126c0565b949350505050565b7f4552433732313a20696e76616c696420746f6b656e2049440000000000000000600082015250565b6000612bc660188361228c565b9150612bd182612b90565b602082019050919050565b60006020820190508181036000830152612bf581612bb9565b9050919050565b7f4552433732313a2061646472657373207a65726f206973206e6f74206120766160008201527f6c6964206f776e65720000000000000000000000000000000000000000000000602082015250565b6000612c5860298361228c565b9150612c6382612bfc565b604082019050919050565b60006020820190508181036000830152612c8781612c4b565b9050919050565b600067ffffffffffffffff821115612ca957612ca8612468565b5b612cb2826122c7565b9050602081019050919050565b6000612cd2612ccd84612c8e565b6124c8565b905082815260208101848484011115612cee57612ced612463565b5b612cf984828561229d565b509392505050565b600082601f830112612d1657612d1561245e565b5b8151612d26848260208601612cbf565b91505092915050565b600060208284031215612d4557612d446121bc565b5b600082015167ffffffffffffffff811115612d6357612d626121c1565b5b612d6f84828501612d01565b91505092915050565b7f4552433732313a207472616e736665722063616c6c6572206973206e6f74206f60008201527f776e6572206e6f7220617070726f766564000000000000000000000000000000602082015250565b6000612dd460318361228c565b9150612ddf82612d78565b604082019050919050565b60006020820190508181036000830152612e0381612dc7565b9050919050565b612e1381612756565b82525050565b6000602082019050612e2e6000830184612e0a565b92915050565b7f4552433732313a207472616e736665722066726f6d20696e636f72726563742060008201527f6f776e6572000000000000000000000000000000000000000000000000000000602082015250565b6000612e9060258361228c565b9150612e9b82612e34565b604082019050919050565b60006020820190508181036000830152612ebf81612e83565b9050919050565b7f4552433732313a207472616e7366657220746f20746865207a65726f2061646460008201527f7265737300000000000000000000000000000000000000000000000000000000602082015250565b6000612f2260248361228c565b9150612f2d82612ec6565b604082019050919050565b60006020820190508181036000830152612f5181612f15565b9050919050565b7f4552433732313a20617070726f766520746f2063616c6c657200000000000000600082015250565b6000612f8e60198361228c565b9150612f9982612f58565b602082019050919050565b60006020820190508181036000830152612fbd81612f81565b9050919050565b7f4552433732313a206d696e7420746f20746865207a65726f2061646472657373600082015250565b6000612ffa60208361228c565b915061300582612fc4565b602082019050919050565b6000602082019050818103600083015261302981612fed565b9050919050565b7f4552433732313a20746f6b656e20616c7265616479206d696e74656400000000600082015250565b6000613066601c8361228c565b915061307182613030565b602082019050919050565b6000602082019050818103600083015261309581613059565b9050919050565b7f4552433732313a207472616e7366657220746f206e6f6e20455243373231526560008201527f63656976657220696d706c656d656e7465720000000000000000000000000000602082015250565b60006130f860328361228c565b91506131038261309c565b604082019050919050565b60006020820190508181036000830152613127816130eb565b9050919050565b6000819050919050565b6000819050919050565b600061315d6131586131538461312e565b613138565b612756565b9050919050565b61316d81613142565b82525050565b60006020820190506131886000830184613164565b92915050565b600081519050919050565b600082825260208201905092915050565b60006131b58261318e565b6131bf8185613199565b93506131cf81856020860161229d565b6131d8816122c7565b840191505092915050565b60006080820190506131f860008301876123c8565b61320560208301866123c8565b61321260408301856126c0565b818103606083015261322481846131aa565b905095945050505050565b60008151905061323e816121f2565b92915050565b60006020828403121561325a576132596121bc565b5b60006132688482850161322f565b91505092915050565b7f4e487b7100000000000000000000000000000000000000000000000000000000600052601160045260246000fd5b60006132ab82612333565b91506132b683612333565b92508282039050818111156132ce576132cd613271565b5b92915050565b60006132df82612333565b91506132ea83612333565b925082820190508082111561330257613301613271565b5b9291505056fea2646970667358221220c73b368ddab73e15590c130663d9ccb989fd2c11621924120c11483f1cb3e4c864736f6c63430008110033",
  "linkReferences": {},
  "deployedLinkReferences": {}
}